:1010AA0054554E453A0043002A2A0044002320435F
:0510BA000023204400AA
:100F9900021A0000021C000002080000022E0000D4
:100FA900101E1DDE1A9C17B4165F13EE11C10FD265
:100FB9000EEE100A1C2F191B165F13EE151D12CE0B
:040FC9000EEE0E1703
:1010D300758901758A18758CFCD2A9D2AFD28C227E
:10000E001210D31210BF7BFF7A1079AA7D017F01E7
:10001E00121058120B218F30120FCEBF0116052F62
:10002E00E52F7002052ED39401E52E94004005E4D1
:10003E00F52EF52FBF02160509E50970020508D346
:10004E009401E50894004005E4F508F509E52F450F
:10005E002E60030202B7E509450860030202B77B72
:10006E00FF7A1079B07D087F01121058E530B40187
:10007E001712107B7535027B017A007D087F021204
:10008E000F5C851E1A851F1BE530B4021712107BFC
:10009E007535027B027A007D087F02120F5C852087
:1000AE001A85211BE530B4031712107B7535027BC0
:1000BE00037A007D087F02120F5C85221A85231BAE
:1000CE00E530B4041712107B7535027B047A007D7F
:1000DE00087F02120F5C85241A85251BE530B405B6
:1000EE001712107B7535027B057A007D087F021290
:1000FE000F5C85261A85271BE530B4061712107B78
:10010E007535027B067A007D087F02120F5C85280A
:10011E001A85291BE530B4071712107B7535027B43
:10012E00077A007D087F02120F5C852A1A852B1B29
:10013E00E530B4082012107B7B2A7D077F02121156
:10014E00067535027B017A007D087F02120F5C85F1
:10015E002C1A852D1BE530B4092512107B7B2A7DC8
:10016E00077F021211067535027B017A007D087F2A
:10017E0002120F5CE51EC313F51AE51F13F51BE5FE
:10018E0030B40A2512107B7B2A7D077F02121106DE
:10019E007535027B027A007D087F02120F5CE52026
:1001AE00C313F51AE52113F51BE530B40B25121018
:1001BE007B7B2A7D077F021211067535027B037A3F
:1001CE00007D087F02120F5CE522C313F51AE523AA
:1001DE0013F51BE530B40C2512107B7B2A7D077FAF
:1001EE00021211067535027B047A007D087F021219
:1001FE000F5CE524C313F51AE52513F51BE530B4A2
:10020E000D2512107B7B2A7D077F02121106753594
:10021E00027B057A007D087F02120F5CE526C31370
:10022E00F51AE52713F51BE530B40E2512107B7B6E
:10023E002A7D077F021211067535027B067A007D34
:10024E00087F02120F5CE528C313F51AE52913F592
:10025E001BE530B40F2512107B7B2A7D077F02121F
:10026E0011067535027B077A007D087F02120F5C3E
:10027E00E52AC313F51AE52B13F51BE530B4102947
:10028E0012107B7BFF7A1079B27D067F0212105816
:10029E007535027B017A007D087F02120F5CE52C1A
:1002AE00C313F51AE52D13F51BE52F6401452E60DA
:1002BE000302059DE5094508600302059D7BFF7A53
:1002CE001079B57D087F01121058E530B401221265
:1002DE00107B7535027B017A007D087F02120F5C60
:1002EE00E51FAE1E7802CEC313CE13D8F9F51B8EC2
:1002FE001AE530B4022212107B7535027B027A00A9
:10030E007D087F02120F5CE521AE207802CEC3136A
:10031E00CE13D8F9F51B8E1AE530B4032212107BDA
:10032E007535027B037A007D087F02120F5CE52390
:10033E00AE227802CEC313CE13D8F9F51B8E1AE572
:10034E0030B4042212107B7535027B047A007D08CE
:10035E007F02120F5CE525AE247802CEC313CE13B6
:10036E00D8F9F51B8E1AE530B4052212107B7535BF
:10037E00027B057A007D087F02120F5CE527AE2610
:10038E007802CEC313CE13D8F9F51B8E1AE530B40E
:10039E00062212107B7535027B067A007D087F02DD
:1003AE00120F5CE529AE287802CEC313CE13D8F90E
:1003BE00F51B8E1AE530B4072212107B7535027BC1
:1003CE00077A007D087F02120F5CE52BAE2A7802B9
:1003DE00CEC313CE13D8F9F51B8E1AE530B4082B05
:1003EE0012107B7B2A7D077F021211067535027B68
:1003FE00017A007D087F02120F5CE52DAE2C78028B
:10040E00CEC313CE13D8F9F51B8E1AE530B4092BD3
:10041E0012107B7B2A7D077F021211067535027B37
:10042E00017A007D087F02120F5CE51FAE1E780375
:10043E00CEC313CE13D8F9F51B8E1AE530B40A2BA2
:10044E0012107B7B2A7D077F021211067535027B07
:10045E00027A007D087F02120F5CE521AE20780340
:10046E00CEC313CE13D8F9F51B8E1AE530B40B2B71
:10047E0012107B7B2A7D077F021211067535027BD7
:10048E00037A007D087F02120F5CE523AE2278030B
:10049E00CEC313CE13D8F9F51B8E1AE530B40C2B40
:1004AE0012107B7B2A7D077F021211067535027BA7
:1004BE00047A007D087F02120F5CE525AE247803D6
:1004CE00CEC313CE13D8F9F51B8E1AE530B40D2B0F
:1004DE0012107B7B2A7D077F021211067535027B77
:1004EE00057A007D087F02120F5CE527AE267803A1
:1004FE00CEC313CE13D8F9F51B8E1AE530B40E2BDE
:10050E0012107B7B2A7D077F021211067535027B46
:10051E00067A007D087F02120F5CE529AE2878036B
:10052E00CEC313CE13D8F9F51B8E1AE530B40F2BAC
:10053E0012107B7B2A7D077F021211067535027B16
:10054E00077A007D087F02120F5CE52BAE2A780336
:10055E00CEC313CE13D8F9F51B8E1AE530B4102F77
:10056E0012107B7BFF7A1079B27D067F0212105833
:10057E007535027B017A007D087F02120F5CE52D36
:10058E00AE2C7803CEC313CE13D8F9F51B8E1AE515
:10059E002F452E60030207FBE50964014508600341
:1005AE000207FB7BFF7A1079B77D087F0112105886
:1005BE00E530B4011712107B7535027B017A007D90
:1005CE00087F02120F5C850A1A850B1BE530B402F8
:1005DE001712107B7535027B027A007D087F02129E
:1005EE000F5C850C1A850D1BE530B4031712107BBA
:1005FE007535027B037A007D087F02120F5C850E33
:10060E001A850F1BE530B4041712107B7535027B6B
:10061E00047A007D087F02120F5C85101A85111B6B
:10062E00E530B4051712107B7535027B057A007D17
:10063E00087F02120F5C85121A85131BE530B40673
:10064E001712107B7535027B067A007D087F021229
:10065E000F5C85141A85151BE530B4071712107B35
:10066E007535027B077A007D087F02120F5C8516B6
:10067E001A85171BE530B4082012107B7B2A7D07E4
:10068E007F021211067535027B017A007D087F020A
:10069E00120F5C85181A85191BE530B40925121046
:1006AE007B7B2A7D077F021211067535027B017A4C
:1006BE00007D087F02120F5CE50AC313F51AE50BE5
:1006CE0013F51BE530B40A2512107B7B2A7D077FBC
:1006DE00021211067535027B027A007D087F021226
:1006EE000F5CE50CC313F51AE50D13F51BE530B4DD
:1006FE000B2512107B7B2A7D077F021211067535A2
:10070E00027B037A007D087F02120F5CE50EC31395
:10071E00F51AE50F13F51BE530B40C2512107B7B93
:10072E002A7D077F021211067535027B047A007D41
:10073E00087F02120F5CE510C313F51AE51113F5CD
:10074E001BE530B40D2512107B7B2A7D077F02122C
:10075E0011067535027B057A007D087F02120F5C4B
:10076E00E512C313F51AE51313F51BE530B40E2588
:10077E0012107B7B2A7D077F021211067535027BD4
:10078E00067A007D087F02120F5CE514C313F51A7A
:10079E00E51513F51BE530B40F2512107B7B2A7D72
:1007AE00077F021211067535027B077A007D087FDE
:1007BE0002120F5CE516C313F51AE51713F51BE5C8
:1007CE0030B4102912107B7BFF7A1079B27D067F30
:1007DE00021210587535027B017A007D087F0212D5
:1007EE000F5CE518C313F51AE51913F51BE52F6415
:1007FE0001452E6003020AE3E50964014508600322
:10080E00020AE37BFF7A1079BB7D087F0112105834
:10081E00E530B4012212107B7535027B017A007D22
:10082E00087F02120F5CE50BAE0A7802CEC313CE20
:10083E0013D8F9F51B8E1AE530B4022212107B750F
:10084E0035027B027A007D087F02120F5CE50DAE49
:10085E000C7802CEC313CE13D8F9F51B8E1AE530E1
:10086E00B4032212107B7535027B037A007D087F5C
:10087E0002120F5CE50FAE0E7802CEC313CE13D864
:10088E00F9F51B8E1AE530B4042212107B75350271
:10089E007B047A007D087F02120F5CE511AE1078A2
:1008AE0002CEC313CE13D8F9F51B8E1AE530B4055C
:1008BE002212107B7535027B057A007D087F0212AD
:1008CE000F5CE513AE127802CEC313CE13D8F9F532
:1008DE001B8E1AE530B4062212107B7535027B068C
:1008EE007A007D087F02120F5CE515AE147802CEF9
:1008FE00C313CE13D8F9F51B8E1AE530B4072212A6
:10090E00107B7535027B077A007D087F02120F5C23
:10091E00E517AE167802CEC313CE13D8F9F51B8E9B
:10092E001AE530B4082B12107B7B2A7D077F02124A
:10093E0011067535027B017A007D087F02120F5C6D
:10094E00E519AE187802CEC313CE13D8F9F51B8E67
:10095E001AE530B4092B12107B7B2A7D077F021219
:10096E0011067535027B017A007D087F02120F5C3D
:10097E00E50BAE0A7803CEC313CE13D8F9F51B8E52
:10098E001AE530B40A2B12107B7B2A7D077F0212E8
:10099E0011067535027B027A007D087F02120F5C0C
:1009AE00E50DAE0C7803CEC313CE13D8F9F51B8E1E
:1009BE001AE530B40B2B12107B7B2A7D077F0212B7
:1009CE0011067535027B037A007D087F02120F5CDB
:1009DE00E50FAE0E7803CEC313CE13D8F9F51B8EEA
:1009EE001AE530B40C2B12107B7B2A7D077F021286
:1009FE0011067535027B047A007D087F02120F5CAA
:100A0E00E511AE107803CEC313CE13D8F9F51B8EB5
:100A1E001AE530B40D2B12107B7B2A7D077F021254
:100A2E0011067535027B057A007D087F02120F5C78
:100A3E00E513AE127803CEC313CE13D8F9F51B8E81
:100A4E001AE530B40E2B12107B7B2A7D077F021223
:100A5E0011067535027B067A007D087F02120F5C47
:100A6E00E515AE147803CEC313CE13D8F9F51B8E4D
:100A7E001AE530B40F2B12107B7B2A7D077F0212F2
:100A8E0011067535027B077A007D087F02120F5C16
:100A9E00E517AE167803CEC313CE13D8F9F51B8E19
:100AAE001AE530B4102F12107B7BFF7A1079B27DCD
:100ABE00067F021210587535027B017A007D087F81
:100ACE0002120F5CE519AE187803CEC313CE13D8FD
:100ADE00F9F51B8E1AE51B451A7003020021AE1A9A
:100AEE00AF1BAB07AA06E4C39BFFE49AFE74019406
:100AFE0000FDE49400FCE4FB7A01F9F8120F188F64
:100B0E008CE4F58AD28CC2A7E51B451A700302004D
:030B1E002180F53E
:03000B00020E984A
:100E9800C0E0C0F0C083C082C0D075D000C000C020
:100EA80001C002C003C004C005C006C007AE1AAF27
:100EB8001BAB07AA06E4C39BFFE49AFE74019400E7
:100EC800FDE49400FCE4FB7A01F9F8120F188F8C0A
:100ED800E4F58AE51B451A70028016B2A7051DE5E0
:100EE8001D7002051C6446451C700AF51AF51BC2E4
:100EF8008CF51CF51DD007D006D005D004D003D042
:100F080002D001D000D0D0D082D083D0F0D0E0324F
:0610E300C2A18F80D2A221
:0810E9007F027EEFDEFEDFFC5A
:0110F10022DC
:0A10F200C2A01210E3C2A20210E92E
:0A10FC00D2A01210E3C2A20210E914
:10109400AE07BE0104ED148006BE0209ED243F44F0
:0610A40080FF1210F22291
:1010BF007F381210F27F0C1210F27F061210F27F9F
:0410CF00010210F218
:0A110600AC03121094AF040210FCB9
:061058008B318A3289335E
:10105E00121094E4FDAB31AA32A9338D8275830050
:0C106E00120CAAFF60061210FC0D80E9B5
:01107A002253
:081031008E368F378C388D39A3
:101039007F017E00E4FBEBC39539E5386480F874E1
:0E1049008098500AAC36AD37120CD70B80E8F9
:011057002276
:040F5C008A338B3415
:100F6000121094AA35EAD39400402DEA24FFFDE440
:100F700034FFFC7F0A7E00121031AC33AD34CFCD8C
:100F8000CFCECCCE120CE97C007D0A120CE9ED2408
:080F900030FF1210FC1A80CDA5
:010F98002236
:10107B00E4FDFC7FC01210F27F201210FC0DBD00AE
:08108B00010CED64104C70F043
:01109300223A
:10100100E4FBFAEF1F8E8370011E45836021E4FC2F
:10101100FDC3ED9402EC940050E9E4FAFB0BBB0034
:0F102100010AEB64804A70F50DBD00010C80E2FE
:01103000229D
:100B2100E4F5317590FFC2932097137F14FE1210E4
:100B3100013097FD7F147E0012100175310120965E
:100B4100147F147E001210013096FD7F147E001276
:100B510010017531052095147F147E0012100130AB
:100B610095FD7F147E001210017531092094147FC8
:100B7100147E001210013094FD7F147E00121001CA
:100B810075310D7590FFC2922097147F147E00126B
:100B910010013097FD7F147E001210017531022083
:100BA10096147F147E001210013096FD7F147E0092
:100BB1001210017531062095147F147E0012100168
:100BC1003095FD7F147E0012100175310A209414B6
:100BD1007F147E001210013094FD7F147E001210EC
:100BE1000175310E7590FFC2912097147F147E001C
:100BF1001210013097FD7F147E0012100175310330
:100C01002096147F147E001210013096FD7F147E11
:100C1100001210017531072095147F147E00121007
:100C2100013095FD7F147E0012100175310B209467
:100C3100147F147E001210013094FD7F147E001287
:100C4100100175310F7590FFC2902097147F147EAB
:100C5100001210013097FD7F147E001210017531D2
:100C6100042096147F147E001210013096FD7F142B
:100C71007E001210017531082095147F147E001238
:100C810010013095FD7F147E0012100175310C208A
:100C910094147F147E001210013094FD7F147E00A5
:080CA100121001753110AF3192
:010CA9002228
:100FCE00E4F53120B6137F14FE12100130B6FD7F0A
:100FDE00147E0012100175310220B7147F147E00AA
:100FEE0012100130B7FD7F147E0012100175310111
:020FFE00AF3111
:0110000022CD
:03000000020E0CE1
:0C0E0C00787FE4F6D8FD758139020E53A2
:100CAA00BB010CE58229F582E5833AF583E02250FF
:100CBA0006E92582F8E622BBFE06E92582F8E22249
:0D0CCA00E58229F582E5833AF583E4932263
:100CD700EF8DF0A4A8F0CF8CF0A428CE8DF0A42E31
:020CE700FE22EB
:100CE900BC000BBE0029EF8DF084FFADF022E4CCEF
:100CF900F875F008EF2FFFEE33FEEC33FCEE9DECB8
:100D0900984005FCEE9DFE0FD5F0E9E4CEFD22EDFD
:100D1900F8F5F0EE8420D21CFEADF075F008EF2F47
:100D2900FFED33FD4007985006D5F0F222C398FD38
:050D39000FD5F0EA22D5
:100F1800C2D5E830E70FB2D5E4C39BFBE49AFAE404
:100F280099F9E498F8EC30E717B2D5120F4E120D84
:100F38007AE4C39BFBE49AFAE499F9E498F880030D
:100F4800120D7A30D50DE4C39FFFE49EFEE49DFDAB
:040F5800E49CFC22F7
:100E180002000EE493A3F8E493A34003F68001F2E2
:100E280008DFF48029E493A3F85407240CC8C333DB
:100E3800C4540F4420C8834004F456800146F6DFAA
:100E4800E4800B0102040810204080900F99E47E92
:100E5800019360BCA3FF543F30E509541FFEE4939F
:100E6800A360010ECF54C025E060A840B8E493A366
:100E7800FAE493A3F8E493A3C8C582C8CAC583CA91
:100E8800F0A3C8C582C8CAC583CADFE9DEE780BE49
:010FCD000023
:100D3E0075F008758200EF2FFFEE33FECD33CDCC6C
:100D4E0033CCC58233C5829BED9AEC99E5829840EF
:100D5E000CF582EE9BFEED9AFDEC99FC0FD5F0D6CC
:100D6E00E4CEFBE4CDFAE4CCF9A88222B800C1B9F6
:100D7E000059BA002DEC8BF084CFCECDFCE5F0CB34
:100D8E00F97818EF2FFFEE33FEED33FDEC33FCEB6D
:100D9E0033FB10D703994004EB99FB0FD8E5E4F928
:100DAE00FA227818EF2FFFEE33FEED33FDEC33FC15
:100DBE00C933C910D7059BE99A4007EC9BFCE99A09
:100DCE00F90FD8E0E4C9FAE4CCFB2275F010EF2F4E
:100DDE00FFEE33FEED33FDCC33CCC833C810D7074E
:100DEE009BEC9AE899400AED9BFDEC9AFCE899F889
:0E0DFE000FD5F0DAE4CDFBE4CCFAE4C8F9221C
:00000001FF
